{
	"data": {
		"bytecode": {
			"linkReferences": {},
			"object": "60806040526040518060a001604052806001815260200160028152602001600381526020016004815260200160058152506001906005610040929190610091565b5034801561004c575f80fd5b50335f806101000a81548173ffffffffffffffffffffffffffffffffffffffff021916908373ffffffffffffffffffffffffffffffffffffffff1602179055506100ec565b82600581019282156100c0579160200282015b828111156100bf5782518255916020019190600101906100a4565b5b5090506100cd91906100d1565b5090565b5b808211156100e8575f815f9055506001016100d2565b5090565b611003806100f95f395ff3fe608060405234801561000f575f80fd5b506004361061007b575f3560e01c806377302b0b1161005957806377302b0b146100ff5780638da5cb5b14610131578063912a5bde1461014f578063e6c237a71461016f5761007b565b8063275bf03b1461007f57806338d94193146100af5780636c92f462146100df575b5f80fd5b61009960048036038101906100949190610820565b61018b565b6040516100a6919061088a565b60405180910390f35b6100c960048036038101906100c49190610820565b6101c6565b6040516100d691906108b2565b60405180910390f35b6100e76101df565b6040516100f693929190610955565b60405180910390f35b610119600480360381019061011491906109c2565b6103d0565b60405161012893929190610a08565b60405180910390f35b61013961050e565b604051610146919061088a565b60405180910390f35b610157610531565b60405161016693929190610a08565b60405180910390f35b61018960048036038101906101849190610c42565b610660565b005b600a818154811061019a575f80fd5b905f5260205f20015f915054906101000a900473ffffffffffffffffffffffffffffffffffffffff1681565b600181600581106101d5575f80fd5b015f915090505481565b6060805f6040518060400160405280600481526020017f4a6f686e0000000000000000000000000000000000000000000000000000000081525060065f0190816102299190610e96565b506040518060400160405280600981526020017f4368656d69737472790000000000000000000000000000000000000000000000815250600660010190816102719190610e96565b50605860066002015f6101000a81548160ff021916908360ff16021790555060065f01600660010160066002015f9054906101000a900460ff168280546102b790610cc9565b80601f01602080910402602001604051908101604052809291908181526020018280546102e390610cc9565b801561032e5780601f106103055761010080835404028352916020019161032e565b820191905f5260205f20905b81548152906001019060200180831161031157829003601f168201915b5050505050925081805461034190610cc9565b80601f016020809104026020016040519081016040528092919081815260200182805461036d90610cc9565b80156103b85780601f1061038f576101008083540402835291602001916103b8565b820191905f5260205f20905b81548152906001019060200180831161039b57829003601f168201915b505050505091508060ff169050925092509250909192565b6009602052805f5260405f205f91509050805f0180546103ef90610cc9565b80601f016020809104026020016040519081016040528092919081815260200182805461041b90610cc9565b80156104665780601f1061043d57610100808354040283529160200191610466565b820191905f5260205f20905b81548152906001019060200180831161044957829003601f168201915b50505050509080600101805461047b90610cc9565b80601f01602080910402602001604051908101604052809291908181526020018280546104a790610cc9565b80156104f25780601f106104c9576101008083540402835291602001916104f2565b820191905f5260205f20905b8154815290600101906020018083116104d557829003601f168201915b505050505090806002015f9054906101000a900460ff16905083565b5f8054906101000a900473ffffffffffffffffffffffffffffffffffffffff1681565b6006805f01805461054190610cc9565b80601f016020809104026020016040519081016040528092919081815260200182805461056d90610cc9565b80156105b85780601f1061058f576101008083540402835291602001916105b8565b820191905f5260205f20905b81548152906001019060200180831161059b57829003601f168201915b5050505050908060010180546105cd90610cc9565b80601f01602080910402602001604051908101604052809291908181526020018280546105f990610cc9565b80156106445780601f1061061b57610100808354040283529160200191610644565b820191905f5260205f20905b81548152906001019060200180831161062757829003601f168201915b505050505090806002015f9054906101000a900460ff16905083565b5f8054906101000a900473ffffffffffffffffffffffffffffffffffffffff1673ffffffffffffffffffffffffffffffffffffffff163373ffffffffffffffffffffffffffffffffffffffff16146106ed576040517f08c379a00000000000000000000000000000000000000000000000000000000081526004016106e490610faf565b60405180910390fd5b8160095f8373ffffffffffffffffffffffffffffffffffffffff1673ffffffffffffffffffffffffffffffffffffffff1681526020019081526020015f205f820151815f01908161073e9190610e96565b5060208201518160010190816107549190610e96565b506040820151816002015f6101000a81548160ff021916908360ff160217905550905050600a81908060018154018082558091505060019003905f5260205f20015f9091909190916101000a81548173ffffffffffffffffffffffffffffffffffffffff021916908373ffffffffffffffffffffffffffffffffffffffff1602179055505050565b5f604051905090565b5f80fd5b5f80fd5b5f819050919050565b6107ff816107ed565b8114610809575f80fd5b50565b5f8135905061081a816107f6565b92915050565b5f60208284031215610835576108346107e5565b5b5f6108428482850161080c565b91505092915050565b5f73ffffffffffffffffffffffffffffffffffffffff82169050919050565b5f6108748261084b565b9050919050565b6108848161086a565b82525050565b5f60208201905061089d5f83018461087b565b92915050565b6108ac816107ed565b82525050565b5f6020820190506108c55f8301846108a3565b92915050565b5f81519050919050565b5f82825260208201905092915050565b5f5b838110156109025780820151818401526020810190506108e7565b5f8484015250505050565b5f601f19601f8301169050919050565b5f610927826108cb565b61093181856108d5565b93506109418185602086016108e5565b61094a8161090d565b840191505092915050565b5f6060820190508181035f83015261096d818661091d565b90508181036020830152610981818561091d565b905061099060408301846108a3565b949350505050565b6109a18161086a565b81146109ab575f80fd5b50565b5f813590506109bc81610998565b92915050565b5f602082840312156109d7576109d66107e5565b5b5f6109e4848285016109ae565b91505092915050565b5f60ff82169050919050565b610a02816109ed565b82525050565b5f6060820190508181035f830152610a20818661091d565b90508181036020830152610a34818561091d565b9050610a4360408301846109f9565b949350505050565b5f80fd5b7f4e487b71000000000000000000000000000000000000000000000000000000005f52604160045260245ffd5b610a858261090d565b810181811067ffffffffffffffff82111715610aa457610aa3610a4f565b5b80604052505050565b5f610ab66107dc565b9050610ac28282610a7c565b919050565b5f80fd5b5f80fd5b5f80fd5b5f67ffffffffffffffff821115610aed57610aec610a4f565b5b610af68261090d565b9050602081019050919050565b828183375f83830152505050565b5f610b23610b1e84610ad3565b610aad565b905082815260208101848484011115610b3f57610b3e610acf565b5b610b4a848285610b03565b509392505050565b5f82601f830112610b6657610b65610acb565b5b8135610b76848260208601610b11565b91505092915050565b610b88816109ed565b8114610b92575f80fd5b50565b5f81359050610ba381610b7f565b92915050565b5f60608284031215610bbe57610bbd610a4b565b5b610bc86060610aad565b90505f82013567ffffffffffffffff811115610be757610be6610ac7565b5b610bf384828501610b52565b5f83015250602082013567ffffffffffffffff811115610c1657610c15610ac7565b5b610c2284828501610b52565b6020830152506040610c3684828501610b95565b60408301525092915050565b5f8060408385031215610c5857610c576107e5565b5b5f83013567ffffffffffffffff811115610c7557610c746107e9565b5b610c8185828601610ba9565b9250506020610c92858286016109ae565b9150509250929050565b7f4e487b71000000000000000000000000000000000000000000000000000000005f52602260045260245ffd5b5f6002820490506001821680610ce057607f821691505b602082108103610cf357610cf2610c9c565b5b50919050565b5f819050815f5260205f209050919050565b5f6020601f8301049050919050565b5f82821b905092915050565b5f60088302610d557fffffffffffffffffffffffffffffffffffffffffffffffffffffffffffffffff82610d1a565b610d5f8683610d1a565b95508019841693508086168417925050509392505050565b5f819050919050565b5f610d9a610d95610d90846107ed565b610d77565b6107ed565b9050919050565b5f819050919050565b610db383610d80565b610dc7610dbf82610da1565b848454610d26565b825550505050565b5f90565b610ddb610dcf565b610de6818484610daa565b505050565b5b81811015610e0957610dfe5f82610dd3565b600181019050610dec565b5050565b601f821115610e4e57610e1f81610cf9565b610e2884610d0b565b81016020851015610e37578190505b610e4b610e4385610d0b565b830182610deb565b50505b505050565b5f82821c905092915050565b5f610e6e5f1984600802610e53565b1980831691505092915050565b5f610e868383610e5f565b9150826002028217905092915050565b610e9f826108cb565b67ffffffffffffffff811115610eb857610eb7610a4f565b5b610ec28254610cc9565b610ecd828285610e0d565b5f60209050601f831160018114610efe575f8415610eec578287015190505b610ef68582610e7b565b865550610f5d565b601f198416610f0c86610cf9565b5f5b82811015610f3357848901518255600182019150602085019450602081019050610f0e565b86831015610f505784890151610f4c601f891682610e5f565b8355505b6001600288020188555050505b505050505050565b7f6f6e6c792041646d696e000000000000000000000000000000000000000000005f82015250565b5f610f99600a836108d5565b9150610fa482610f65565b602082019050919050565b5f6020820190508181035f830152610fc681610f8d565b905091905056fea2646970667358221220115544a1ca1dddc594dad9fa4cecf826a26aaefc59f5cc034239e984459e5e8164736f6c63430008180033",
			"opcodes": "PUSH1 0x80 PUSH1 0x40 MSTORE PUSH1 0x40 MLOAD DUP1 PUSH1 0xA0 ADD PUSH1 0x40 MSTORE DUP1 PUSH1 0x1 DUP2 MSTORE PUSH1 0x20 ADD PUSH1 0x2 DUP2 MSTORE PUSH1 0x20 ADD PUSH1 0x3 DUP2 MSTORE PUSH1 0x20 ADD PUSH1 0x4 DUP2 MSTORE PUSH1 0x20 ADD PUSH1 0x5 DUP2 MSTORE POP PUSH1 0x1 SWAP1 PUSH1 0x5 PUSH2 0x40 SWAP3 SWAP2 SWAP1 PUSH2 0x91 JUMP JUMPDEST POP CALLVALUE DUP1 ISZERO PUSH2 0x4C JUMPI PUSH0 DUP1 REVERT JUMPDEST POP CALLER PUSH0 DUP1 PUSH2 0x100 EXP DUP2 SLOAD DUP2 PUSH20 0xFFFFFFFFFFFFFFFFFFFFFFFFFFFFFFFFFFFFFFFF MUL NOT AND SWAP1 DUP4 PUSH20 0xFFFFFFFFFFFFFFFFFFFFFFFFFFFFFFFFFFFFFFFF AND MUL OR SWAP1 SSTORE POP PUSH2 0xEC JUMP JUMPDEST DUP3 PUSH1 0x5 DUP2 ADD SWAP3 DUP3 ISZERO PUSH2 0xC0 JUMPI SWAP2 PUSH1 0x20 MUL DUP3 ADD JUMPDEST DUP3 DUP2 GT ISZERO PUSH2 0xBF JUMPI DUP3 MLOAD DUP3 SSTORE SWAP2 PUSH1 0x20 ADD SWAP2 SWAP1 PUSH1 0x1 ADD SWAP1 PUSH2 0xA4 JUMP JUMPDEST JUMPDEST POP SWAP1 POP PUSH2 0xCD SWAP2 SWAP1 PUSH2 0xD1 JUMP JUMPDEST POP SWAP1 JUMP JUMPDEST JUMPDEST DUP1 DUP3 GT ISZERO PUSH2 0xE8 JUMPI PUSH0 DUP2 PUSH0 SWAP1 SSTORE POP PUSH1 0x1 ADD PUSH2 0xD2 JUMP JUMPDEST POP SWAP1 JUMP JUMPDEST PUSH2 0x1003 DUP1 PUSH2 0xF9 PUSH0 CODECOPY PUSH0 RETURN INVALID PUSH1 0x80 PUSH1 0x40 MSTORE CALLVALUE DUP1 ISZERO PUSH2 0xF JUMPI PUSH0 DUP1 REVERT JUMPDEST POP PUSH1 0x4 CALLDATASIZE LT PUSH2 0x7B JUMPI PUSH0 CALLDATALOAD PUSH1 0xE0 SHR DUP1 PUSH4 0x77302B0B GT PUSH2 0x59 JUMPI DUP1 PUSH4 0x77302B0B EQ PUSH2 0xFF JUMPI DUP1 PUSH4 0x8DA5CB5B EQ PUSH2 0x131 JUMPI DUP1 PUSH4 0x912A5BDE EQ PUSH2 0x14F JUMPI DUP1 PUSH4 0xE6C237A7 EQ PUSH2 0x16F JUMPI PUSH2 0x7B JUMP JUMPDEST DUP1 PUSH4 0x275BF03B EQ PUSH2 0x7F JUMPI DUP1 PUSH4 0x38D94193 EQ PUSH2 0xAF JUMPI DUP1 PUSH4 0x6C92F462 EQ PUSH2 0xDF JUMPI JUMPDEST PUSH0 DUP1 REVERT JUMPDEST PUSH2 0x99 PUSH1 0x4 DUP1 CALLDATASIZE SUB DUP2 ADD SWAP1 PUSH2 0x94 SWAP2 SWAP1 PUSH2 0x820 JUMP JUMPDEST PUSH2 0x18B JUMP JUMPDEST PUSH1 0x40 MLOAD PUSH2 0xA6 SWAP2 SWAP1 PUSH2 0x88A JUMP JUMPDEST PUSH1 0x40 MLOAD DUP1 SWAP2 SUB SWAP1 RETURN JUMPDEST PUSH2 0xC9 PUSH1 0x4 DUP1 CALLDATASIZE SUB DUP2 ADD SWAP1 PUSH2 0xC4 SWAP2 SWAP1 PUSH2 0x820 JUMP JUMPDEST PUSH2 0x1C6 JUMP JUMPDEST PUSH1 0x40 MLOAD PUSH2 0xD6 SWAP2 SWAP1 PUSH2 0x8B2 JUMP JUMPDEST PUSH1 0x40 MLOAD DUP1 SWAP2 SUB SWAP1 RETURN JUMPDEST PUSH2 0xE7 PUSH2 0x1DF JUMP JUMPDEST PUSH1 0x40 MLOAD PUSH2 0xF6 SWAP4 SWAP3 SWAP2 SWAP1 PUSH2 0x955 JUMP JUMPDEST PUSH1 0x40 MLOAD DUP1 SWAP2 SUB SWAP1 RETURN JUMPDEST PUSH2 0x119 PUSH1 0x4 DUP1 CALLDATASIZE SUB DUP2 ADD SWAP1 PUSH2 0x114 SWAP2 SWAP1 PUSH2 0x9C2 JUMP JUMPDEST PUSH2 0x3D0 JUMP JUMPDEST PUSH1 0x40 MLOAD PUSH2 0x128 SWAP4 SWAP3 SWAP2 SWAP1 PUSH2 0xA08 JUMP JUMPDEST PUSH1 0x40 MLOAD DUP1 SWAP2 SUB SWAP1 RETURN JUMPDEST PUSH2 0x139 PUSH2 0x50E JUMP JUMPDEST PUSH1 0x40 MLOAD PUSH2 0x146 SWAP2 SWAP1 PUSH2 0x88A JUMP JUMPDEST PUSH1 0x40 MLOAD DUP1 SWAP2 SUB SWAP1 RETURN JUMPDEST PUSH2 0x157 PUSH2 0x531 JUMP JUMPDEST PUSH1 0x40 MLOAD PUSH2 0x166 SWAP4 SWAP3 SWAP2 SWAP1 PUSH2 0xA08 JUMP JUMPDEST PUSH1 0x40 MLOAD DUP1 SWAP2 SUB SWAP1 RETURN JUMPDEST PUSH2 0x189 PUSH1 0x4 DUP1 CALLDATASIZE SUB DUP2 ADD SWAP1 PUSH2 0x184 SWAP2 SWAP1 PUSH2 0xC42 JUMP JUMPDEST PUSH2 0x660 JUMP JUMPDEST STOP JUMPDEST PUSH1 0xA DUP2 DUP2 SLOAD DUP2 LT PUSH2 0x19A JUMPI PUSH0 DUP1 REVERT JUMPDEST SWAP1 PUSH0 MSTORE PUSH1 0x20 PUSH0 KECCAK256 ADD PUSH0 SWAP2 POP SLOAD SWAP1 PUSH2 0x100 EXP SWAP1 DIV PUSH20 0xFFFFFFFFFFFFFFFFFFFFFFFFFFFFFFFFFFFFFFFF AND DUP2 JUMP JUMPDEST PUSH1 0x1 DUP2 PUSH1 0x5 DUP2 LT PUSH2 0x1D5 JUMPI PUSH0 DUP1 REVERT JUMPDEST ADD PUSH0 SWAP2 POP SWAP1 POP SLOAD DUP2 JUMP JUMPDEST PUSH1 0x60 DUP1 PUSH0 PUSH1 0x40 MLOAD DUP1 PUSH1 0x40 ADD PUSH1 0x40 MSTORE DUP1 PUSH1 0x4 DUP2 MSTORE PUSH1 0x20 ADD PUSH32 0x4A6F686E00000000000000000000000000000000000000000000000000000000 DUP2 MSTORE POP PUSH1 0x6 PUSH0 ADD SWAP1 DUP2 PUSH2 0x229 SWAP2 SWAP1 PUSH2 0xE96 JUMP JUMPDEST POP PUSH1 0x40 MLOAD DUP1 PUSH1 0x40 ADD PUSH1 0x40 MSTORE DUP1 PUSH1 0x9 DUP2 MSTORE PUSH1 0x20 ADD PUSH32 0x4368656D69737472790000000000000000000000000000000000000000000000 DUP2 MSTORE POP PUSH1 0x6 PUSH1 0x1 ADD SWAP1 DUP2 PUSH2 0x271 SWAP2 SWAP1 PUSH2 0xE96 JUMP JUMPDEST POP PUSH1 0x58 PUSH1 0x6 PUSH1 0x2 ADD PUSH0 PUSH2 0x100 EXP DUP2 SLOAD DUP2 PUSH1 0xFF MUL NOT AND SWAP1 DUP4 PUSH1 0xFF AND MUL OR SWAP1 SSTORE POP PUSH1 0x6 PUSH0 ADD PUSH1 0x6 PUSH1 0x1 ADD PUSH1 0x6 PUSH1 0x2 ADD PUSH0 SWAP1 SLOAD SWAP1 PUSH2 0x100 EXP SWAP1 DIV PUSH1 0xFF AND DUP3 DUP1 SLOAD PUSH2 0x2B7 SWAP1 PUSH2 0xCC9 JUMP JUMPDEST DUP1 PUSH1 0x1F ADD PUSH1 0x20 DUP1 SWAP2 DIV MUL PUSH1 0x20 ADD PUSH1 0x40 MLOAD SWAP1 DUP2 ADD PUSH1 0x40 MSTORE DUP1 SWAP3 SWAP2 SWAP1 DUP2 DUP2 MSTORE PUSH1 0x20 ADD DUP3 DUP1 SLOAD PUSH2 0x2E3 SWAP1 PUSH2 0xCC9 JUMP JUMPDEST DUP1 ISZERO PUSH2 0x32E JUMPI DUP1 PUSH1 0x1F LT PUSH2 0x305 JUMPI PUSH2 0x100 DUP1 DUP4 SLOAD DIV MUL DUP4 MSTORE SWAP2 PUSH1 0x20 ADD SWAP2 PUSH2 0x32E JUMP JUMPDEST DUP3 ADD SWAP2 SWAP1 PUSH0 MSTORE PUSH1 0x20 PUSH0 KECCAK256 SWAP1 JUMPDEST DUP2 SLOAD DUP2 MSTORE SWAP1 PUSH1 0x1 ADD SWAP1 PUSH1 0x20 ADD DUP1 DUP4 GT PUSH2 0x311 JUMPI DUP3 SWAP1 SUB PUSH1 0x1F AND DUP3 ADD SWAP2 JUMPDEST POP POP POP POP POP SWAP3 POP DUP2 DUP1 SLOAD PUSH2 0x341 SWAP1 PUSH2 0xCC9 JUMP JUMPDEST DUP1 PUSH1 0x1F ADD PUSH1 0x20 DUP1 SWAP2 DIV MUL PUSH1 0x20 ADD PUSH1 0x40 MLOAD SWAP1 DUP2 ADD PUSH1 0x40 MSTORE DUP1 SWAP3 SWAP2 SWAP1 DUP2 DUP2 MSTORE PUSH1 0x20 ADD DUP3 DUP1 SLOAD PUSH2 0x36D SWAP1 PUSH2 0xCC9 JUMP JUMPDEST DUP1 ISZERO PUSH2 0x3B8 JUMPI DUP1 PUSH1 0x1F LT PUSH2 0x38F JUMPI PUSH2 0x100 DUP1 DUP4 SLOAD DIV MUL DUP4 MSTORE SWAP2 PUSH1 0x20 ADD SWAP2 PUSH2 0x3B8 JUMP JUMPDEST DUP3 ADD SWAP2 SWAP1 PUSH0 MSTORE PUSH1 0x20 PUSH0 KECCAK256 SWAP1 JUMPDEST DUP2 SLOAD DUP2 MSTORE SWAP1 PUSH1 0x1 ADD SWAP1 PUSH1 0x20 ADD DUP1 DUP4 GT PUSH2 0x39B JUMPI DUP3 SWAP1 SUB PUSH1 0x1F AND DUP3 ADD SWAP2 JUMPDEST POP POP POP POP POP SWAP2 POP DUP1 PUSH1 0xFF AND SWAP1 POP SWAP3 POP SWAP3 POP SWAP3 POP SWAP1 SWAP2 SWAP3 JUMP JUMPDEST PUSH1 0x9 PUSH1 0x20 MSTORE DUP1 PUSH0 MSTORE PUSH1 0x40 PUSH0 KECCAK256 PUSH0 SWAP2 POP SWAP1 POP DUP1 PUSH0 ADD DUP1 SLOAD PUSH2 0x3EF SWAP1 PUSH2 0xCC9 JUMP JUMPDEST DUP1 PUSH1 0x1F ADD PUSH1 0x20 DUP1 SWAP2 DIV MUL PUSH1 0x20 ADD PUSH1 0x40 MLOAD SWAP1 DUP2 ADD PUSH1 0x40 MSTORE DUP1 SWAP3 SWAP2 SWAP1 DUP2 DUP2 MSTORE PUSH1 0x20 ADD DUP3 DUP1 SLOAD PUSH2 0x41B SWAP1 PUSH2 0xCC9 JUMP JUMPDEST DUP1 ISZERO PUSH2 0x466 JUMPI DUP1 PUSH1 0x1F LT PUSH2 0x43D JUMPI PUSH2 0x100 DUP1 DUP4 SLOAD DIV MUL DUP4 MSTORE SWAP2 PUSH1 0x20 ADD SWAP2 PUSH2 0x466 JUMP JUMPDEST DUP3 ADD SWAP2 SWAP1 PUSH0 MSTORE PUSH1 0x20 PUSH0 KECCAK256 SWAP1 JUMPDEST DUP2 SLOAD DUP2 MSTORE SWAP1 PUSH1 0x1 ADD SWAP1 PUSH1 0x20 ADD DUP1 DUP4 GT PUSH2 0x449 JUMPI DUP3 SWAP1 SUB PUSH1 0x1F AND DUP3 ADD SWAP2 JUMPDEST POP POP POP POP POP SWAP1 DUP1 PUSH1 0x1 ADD DUP1 SLOAD PUSH2 0x47B SWAP1 PUSH2 0xCC9 JUMP JUMPDEST DUP1 PUSH1 0x1F ADD PUSH1 0x20 DUP1 SWAP2 DIV MUL PUSH1 0x20 ADD PUSH1 0x40 MLOAD SWAP1 DUP2 ADD PUSH1 0x40 MSTORE DUP1 SWAP3 SWAP2 SWAP1 DUP2 DUP2 MSTORE PUSH1 0x20 ADD DUP3 DUP1 SLOAD PUSH2 0x4A7 SWAP1 PUSH2 0xCC9 JUMP JUMPDEST DUP1 ISZERO PUSH2 0x4F2 JUMPI DUP1 PUSH1 0x1F LT PUSH2 0x4C9 JUMPI PUSH2 0x100 DUP1 DUP4 SLOAD DIV MUL DUP4 MSTORE SWAP2 PUSH1 0x20 ADD SWAP2 PUSH2 0x4F2 JUMP JUMPDEST DUP3 ADD SWAP2 SWAP1 PUSH0 MSTORE PUSH1 0x20 PUSH0 KECCAK256 SWAP1 JUMPDEST DUP2 SLOAD DUP2 MSTORE SWAP1 PUSH1 0x1 ADD SWAP1 PUSH1 0x20 ADD DUP1 DUP4 GT PUSH2 0x4D5 JUMPI DUP3 SWAP1 SUB PUSH1 0x1F AND DUP3 ADD SWAP2 JUMPDEST POP POP POP POP POP SWAP1 DUP1 PUSH1 0x2 ADD PUSH0 SWAP1 SLOAD SWAP1 PUSH2 0x100 EXP SWAP1 DIV PUSH1 0xFF AND SWAP1 POP DUP4 JUMP JUMPDEST PUSH0 DUP1 SLOAD SWAP1 PUSH2 0x100 EXP SWAP1 DIV PUSH20 0xFFFFFFFFFFFFFFFFFFFFFFFFFFFFFFFFFFFFFFFF AND DUP2 JUMP JUMPDEST PUSH1 0x6 DUP1 PUSH0 ADD DUP1 SLOAD PUSH2 0x541 SWAP1 PUSH2 0xCC9 JUMP JUMPDEST DUP1 PUSH1 0x1F ADD PUSH1 0x20 DUP1 SWAP2 DIV MUL PUSH1 0x20 ADD PUSH1 0x40 MLOAD SWAP1 DUP2 ADD PUSH1 0x40 MSTORE DUP1 SWAP3 SWAP2 SWAP1 DUP2 DUP2 MSTORE PUSH1 0x20 ADD DUP3 DUP1 SLOAD PUSH2 0x56D SWAP1 PUSH2 0xCC9 JUMP JUMPDEST DUP1 ISZERO PUSH2 0x5B8 JUMPI DUP1 PUSH1 0x1F LT PUSH2 0x58F JUMPI PUSH2 0x100 DUP1 DUP4 SLOAD DIV MUL DUP4 MSTORE SWAP2 PUSH1 0x20 ADD SWAP2 PUSH2 0x5B8 JUMP JUMPDEST DUP3 ADD SWAP2 SWAP1 PUSH0 MSTORE PUSH1 0x20 PUSH0 KECCAK256 SWAP1 JUMPDEST DUP2 SLOAD DUP2 MSTORE SWAP1 PUSH1 0x1 ADD SWAP1 PUSH1 0x20 ADD DUP1 DUP4 GT PUSH2 0x59B JUMPI DUP3 SWAP1 SUB PUSH1 0x1F AND DUP3 ADD SWAP2 JUMPDEST POP POP POP POP POP SWAP1 DUP1 PUSH1 0x1 ADD DUP1 SLOAD PUSH2 0x5CD SWAP1 PUSH2 0xCC9 JUMP JUMPDEST DUP1 PUSH1 0x1F ADD PUSH1 0x20 DUP1 SWAP2 DIV MUL PUSH1 0x20 ADD PUSH1 0x40 MLOAD SWAP1 DUP2 ADD PUSH1 0x40 MSTORE DUP1 SWAP3 SWAP2 SWAP1 DUP2 DUP2 MSTORE PUSH1 0x20 ADD DUP3 DUP1 SLOAD PUSH2 0x5F9 SWAP1 PUSH2 0xCC9 JUMP JUMPDEST DUP1 ISZERO PUSH2 0x644 JUMPI DUP1 PUSH1 0x1F LT PUSH2 0x61B JUMPI PUSH2 0x100 DUP1 DUP4 SLOAD DIV MUL DUP4 MSTORE SWAP2 PUSH1 0x20 ADD SWAP2 PUSH2 0x644 JUMP JUMPDEST DUP3 ADD SWAP2 SWAP1 PUSH0 MSTORE PUSH1 0x20 PUSH0 KECCAK256 SWAP1 JUMPDEST DUP2 SLOAD DUP2 MSTORE SWAP1 PUSH1 0x1 ADD SWAP1 PUSH1 0x20 ADD DUP1 DUP4 GT PUSH2 0x627 JUMPI DUP3 SWAP1 SUB PUSH1 0x1F AND DUP3 ADD SWAP2 JUMPDEST POP POP POP POP POP SWAP1 DUP1 PUSH1 0x2 ADD PUSH0 SWAP1 SLOAD SWAP1 PUSH2 0x100 EXP SWAP1 DIV PUSH1 0xFF AND SWAP1 POP DUP4 JUMP JUMPDEST PUSH0 DUP1 SLOAD SWAP1 PUSH2 0x100 EXP SWAP1 DIV PUSH20 0xFFFFFFFFFFFFFFFFFFFFFFFFFFFFFFFFFFFFFFFF AND PUSH20 0xFFFFFFFFFFFFFFFFFFFFFFFFFFFFFFFFFFFFFFFF AND CALLER PUSH20 0xFFFFFFFFFFFFFFFFFFFFFFFFFFFFFFFFFFFFFFFF AND EQ PUSH2 0x6ED JUMPI PUSH1 0x40 MLOAD PUSH32 0x8C379A000000000000000000000000000000000000000000000000000000000 DUP2 MSTORE PUSH1 0x4 ADD PUSH2 0x6E4 SWAP1 PUSH2 0xFAF JUMP JUMPDEST PUSH1 0x40 MLOAD DUP1 SWAP2 SUB SWAP1 REVERT JUMPDEST DUP2 PUSH1 0x9 PUSH0 DUP4 PUSH20 0xFFFFFFFFFFFFFFFFFFFFFFFFFFFFFFFFFFFFFFFF AND PUSH20 0xFFFFFFFFFFFFFFFFFFFFFFFFFFFFFFFFFFFFFFFF AND DUP2 MSTORE PUSH1 0x20 ADD SWAP1 DUP2 MSTORE PUSH1 0x20 ADD PUSH0 KECCAK256 PUSH0 DUP3 ADD MLOAD DUP2 PUSH0 ADD SWAP1 DUP2 PUSH2 0x73E SWAP2 SWAP1 PUSH2 0xE96 JUMP JUMPDEST POP PUSH1 0x20 DUP3 ADD MLOAD DUP2 PUSH1 0x1 ADD SWAP1 DUP2 PUSH2 0x754 SWAP2 SWAP1 PUSH2 0xE96 JUMP JUMPDEST POP PUSH1 0x40 DUP3 ADD MLOAD DUP2 PUSH1 0x2 ADD PUSH0 PUSH2 0x100 EXP DUP2 SLOAD DUP2 PUSH1 0xFF MUL NOT AND SWAP1 DUP4 PUSH1 0xFF AND MUL OR SWAP1 SSTORE POP SWAP1 POP POP PUSH1 0xA DUP2 SWAP1 DUP1 PUSH1 0x1 DUP2 SLOAD ADD DUP1 DUP3 SSTORE DUP1 SWAP2 POP POP PUSH1 0x1 SWAP1 SUB SWAP1 PUSH0 MSTORE PUSH1 0x20 PUSH0 KECCAK256 ADD PUSH0 SWAP1 SWAP2 SWAP1 SWAP2 SWAP1 SWAP2 PUSH2 0x100 EXP DUP2 SLOAD DUP2 PUSH20 0xFFFFFFFFFFFFFFFFFFFFFFFFFFFFFFFFFFFFFFFF MUL NOT AND SWAP1 DUP4 PUSH20 0xFFFFFFFFFFFFFFFFFFFFFFFFFFFFFFFFFFFFFFFF AND MUL OR SWAP1 SSTORE POP POP POP JUMP JUMPDEST PUSH0 PUSH1 0x40 MLOAD SWAP1 POP SWAP1 JUMP JUMPDEST PUSH0 DUP1 REVERT JUMPDEST PUSH0 DUP1 REVERT JUMPDEST PUSH0 DUP2 SWAP1 POP SWAP2 SWAP1 POP JUMP JUMPDEST PUSH2 0x7FF DUP2 PUSH2 0x7ED JUMP JUMPDEST DUP2 EQ PUSH2 0x809 JUMPI PUSH0 DUP1 REVERT JUMPDEST POP JUMP JUMPDEST PUSH0 DUP2 CALLDATALOAD SWAP1 POP PUSH2 0x81A DUP2 PUSH2 0x7F6 JUMP JUMPDEST SWAP3 SWAP2 POP POP JUMP JUMPDEST PUSH0 PUSH1 0x20 DUP3 DUP5 SUB SLT ISZERO PUSH2 0x835 JUMPI PUSH2 0x834 PUSH2 0x7E5 JUMP JUMPDEST JUMPDEST PUSH0 PUSH2 0x842 DUP5 DUP3 DUP6 ADD PUSH2 0x80C JUMP JUMPDEST SWAP2 POP POP SWAP3 SWAP2 POP POP JUMP JUMPDEST PUSH0 PUSH20 0xFFFFFFFFFFFFFFFFFFFFFFFFFFFFFFFFFFFFFFFF DUP3 AND SWAP1 POP SWAP2 SWAP1 POP JUMP JUMPDEST PUSH0 PUSH2 0x874 DUP3 PUSH2 0x84B JUMP JUMPDEST SWAP1 POP SWAP2 SWAP1 POP JUMP JUMPDEST PUSH2 0x884 DUP2 PUSH2 0x86A JUMP JUMPDEST DUP3 MSTORE POP POP JUMP JUMPDEST PUSH0 PUSH1 0x20 DUP3 ADD SWAP1 POP PUSH2 0x89D PUSH0 DUP4 ADD DUP5 PUSH2 0x87B JUMP JUMPDEST SWAP3 SWAP2 POP POP JUMP JUMPDEST PUSH2 0x8AC DUP2 PUSH2 0x7ED JUMP JUMPDEST DUP3 MSTORE POP POP JUMP JUMPDEST PUSH0 PUSH1 0x20 DUP3 ADD SWAP1 POP PUSH2 0x8C5 PUSH0 DUP4 ADD DUP5 PUSH2 0x8A3 JUMP JUMPDEST SWAP3 SWAP2 POP POP JUMP JUMPDEST PUSH0 DUP2 MLOAD SWAP1 POP SWAP2 SWAP1 POP JUMP JUMPDEST PUSH0 DUP3 DUP3 MSTORE PUSH1 0x20 DUP3 ADD SWAP1 POP SWAP3 SWAP2 POP POP JUMP JUMPDEST PUSH0 JUMPDEST DUP4 DUP2 LT ISZERO PUSH2 0x902 JUMPI DUP1 DUP3 ADD MLOAD DUP2 DUP5 ADD MSTORE PUSH1 0x20 DUP2 ADD SWAP1 POP PUSH2 0x8E7 JUMP JUMPDEST PUSH0 DUP5 DUP5 ADD MSTORE POP POP POP POP JUMP JUMPDEST PUSH0 PUSH1 0x1F NOT PUSH1 0x1F DUP4 ADD AND SWAP1 POP SWAP2 SWAP1 POP JUMP JUMPDEST PUSH0 PUSH2 0x927 DUP3 PUSH2 0x8CB JUMP JUMPDEST PUSH2 0x931 DUP2 DUP6 PUSH2 0x8D5 JUMP JUMPDEST SWAP4 POP PUSH2 0x941 DUP2 DUP6 PUSH1 0x20 DUP7 ADD PUSH2 0x8E5 JUMP JUMPDEST PUSH2 0x94A DUP2 PUSH2 0x90D JUMP JUMPDEST DUP5 ADD SWAP2 POP POP SWAP3 SWAP2 POP POP JUMP JUMPDEST PUSH0 PUSH1 0x60 DUP3 ADD SWAP1 POP DUP2 DUP2 SUB PUSH0 DUP4 ADD MSTORE PUSH2 0x96D DUP2 DUP7 PUSH2 0x91D JUMP JUMPDEST SWAP1 POP DUP2 DUP2 SUB PUSH1 0x20 DUP4 ADD MSTORE PUSH2 0x981 DUP2 DUP6 PUSH2 0x91D JUMP JUMPDEST SWAP1 POP PUSH2 0x990 PUSH1 0x40 DUP4 ADD DUP5 PUSH2 0x8A3 JUMP JUMPDEST SWAP5 SWAP4 POP POP POP POP JUMP JUMPDEST PUSH2 0x9A1 DUP2 PUSH2 0x86A JUMP JUMPDEST DUP2 EQ PUSH2 0x9AB JUMPI PUSH0 DUP1 REVERT JUMPDEST POP JUMP JUMPDEST PUSH0 DUP2 CALLDATALOAD SWAP1 POP PUSH2 0x9BC DUP2 PUSH2 0x998 JUMP JUMPDEST SWAP3 SWAP2 POP POP JUMP JUMPDEST PUSH0 PUSH1 0x20 DUP3 DUP5 SUB SLT ISZERO PUSH2 0x9D7 JUMPI PUSH2 0x9D6 PUSH2 0x7E5 JUMP JUMPDEST JUMPDEST PUSH0 PUSH2 0x9E4 DUP5 DUP3 DUP6 ADD PUSH2 0x9AE JUMP JUMPDEST SWAP2 POP POP SWAP3 SWAP2 POP POP JUMP JUMPDEST PUSH0 PUSH1 0xFF DUP3 AND SWAP1 POP SWAP2 SWAP1 POP JUMP JUMPDEST PUSH2 0xA02 DUP2 PUSH2 0x9ED JUMP JUMPDEST DUP3 MSTORE POP POP JUMP JUMPDEST PUSH0 PUSH1 0x60 DUP3 ADD SWAP1 POP DUP2 DUP2 SUB PUSH0 DUP4 ADD MSTORE PUSH2 0xA20 DUP2 DUP7 PUSH2 0x91D JUMP JUMPDEST SWAP1 POP DUP2 DUP2 SUB PUSH1 0x20 DUP4 ADD MSTORE PUSH2 0xA34 DUP2 DUP6 PUSH2 0x91D JUMP JUMPDEST SWAP1 POP PUSH2 0xA43 PUSH1 0x40 DUP4 ADD DUP5 PUSH2 0x9F9 JUMP JUMPDEST SWAP5 SWAP4 POP POP POP POP JUMP JUMPDEST PUSH0 DUP1 REVERT JUMPDEST PUSH32 0x4E487B7100000000000000000000000000000000000000000000000000000000 PUSH0 MSTORE PUSH1 0x41 PUSH1 0x4 MSTORE PUSH1 0x24 PUSH0 REVERT JUMPDEST PUSH2 0xA85 DUP3 PUSH2 0x90D JUMP JUMPDEST DUP2 ADD DUP2 DUP2 LT PUSH8 0xFFFFFFFFFFFFFFFF DUP3 GT OR ISZERO PUSH2 0xAA4 JUMPI PUSH2 0xAA3 PUSH2 0xA4F JUMP JUMPDEST JUMPDEST DUP1 PUSH1 0x40 MSTORE POP POP POP JUMP JUMPDEST PUSH0 PUSH2 0xAB6 PUSH2 0x7DC JUMP JUMPDEST SWAP1 POP PUSH2 0xAC2 DUP3 DUP3 PUSH2 0xA7C JUMP JUMPDEST SWAP2 SWAP1 POP JUMP JUMPDEST PUSH0 DUP1 REVERT JUMPDEST PUSH0 DUP1 REVERT JUMPDEST PUSH0 DUP1 REVERT JUMPDEST PUSH0 PUSH8 0xFFFFFFFFFFFFFFFF DUP3 GT ISZERO PUSH2 0xAED JUMPI PUSH2 0xAEC PUSH2 0xA4F JUMP JUMPDEST JUMPDEST PUSH2 0xAF6 DUP3 PUSH2 0x90D JUMP JUMPDEST SWAP1 POP PUSH1 0x20 DUP2 ADD SWAP1 POP SWAP2 SWAP1 POP JUMP JUMPDEST DUP3 DUP2 DUP4 CALLDATACOPY PUSH0 DUP4 DUP4 ADD MSTORE POP POP POP JUMP JUMPDEST PUSH0 PUSH2 0xB23 PUSH2 0xB1E DUP5 PUSH2 0xAD3 JUMP JUMPDEST PUSH2 0xAAD JUMP JUMPDEST SWAP1 POP DUP3 DUP2 MSTORE PUSH1 0x20 DUP2 ADD DUP5 DUP5 DUP5 ADD GT ISZERO PUSH2 0xB3F JUMPI PUSH2 0xB3E PUSH2 0xACF JUMP JUMPDEST JUMPDEST PUSH2 0xB4A DUP5 DUP3 DUP6 PUSH2 0xB03 JUMP JUMPDEST POP SWAP4 SWAP3 POP POP POP JUMP JUMPDEST PUSH0 DUP3 PUSH1 0x1F DUP4 ADD SLT PUSH2 0xB66 JUMPI PUSH2 0xB65 PUSH2 0xACB JUMP JUMPDEST JUMPDEST DUP2 CALLDATALOAD PUSH2 0xB76 DUP5 DUP3 PUSH1 0x20 DUP7 ADD PUSH2 0xB11 JUMP JUMPDEST SWAP2 POP POP SWAP3 SWAP2 POP POP JUMP JUMPDEST PUSH2 0xB88 DUP2 PUSH2 0x9ED JUMP JUMPDEST DUP2 EQ PUSH2 0xB92 JUMPI PUSH0 DUP1 REVERT JUMPDEST POP JUMP JUMPDEST PUSH0 DUP2 CALLDATALOAD SWAP1 POP PUSH2 0xBA3 DUP2 PUSH2 0xB7F JUMP JUMPDEST SWAP3 SWAP2 POP POP JUMP JUMPDEST PUSH0 PUSH1 0x60 DUP3 DUP5 SUB SLT ISZERO PUSH2 0xBBE JUMPI PUSH2 0xBBD PUSH2 0xA4B JUMP JUMPDEST JUMPDEST PUSH2 0xBC8 PUSH1 0x60 PUSH2 0xAAD JUMP JUMPDEST SWAP1 POP PUSH0 DUP3 ADD CALLDATALOAD PUSH8 0xFFFFFFFFFFFFFFFF DUP2 GT ISZERO PUSH2 0xBE7 JUMPI PUSH2 0xBE6 PUSH2 0xAC7 JUMP JUMPDEST JUMPDEST PUSH2 0xBF3 DUP5 DUP3 DUP6 ADD PUSH2 0xB52 JUMP JUMPDEST PUSH0 DUP4 ADD MSTORE POP PUSH1 0x20 DUP3 ADD CALLDATALOAD PUSH8 0xFFFFFFFFFFFFFFFF DUP2 GT ISZERO PUSH2 0xC16 JUMPI PUSH2 0xC15 PUSH2 0xAC7 JUMP JUMPDEST JUMPDEST PUSH2 0xC22 DUP5 DUP3 DUP6 ADD PUSH2 0xB52 JUMP JUMPDEST PUSH1 0x20 DUP4 ADD MSTORE POP PUSH1 0x40 PUSH2 0xC36 DUP5 DUP3 DUP6 ADD PUSH2 0xB95 JUMP JUMPDEST PUSH1 0x40 DUP4 ADD MSTORE POP SWAP3 SWAP2 POP POP JUMP JUMPDEST PUSH0 DUP1 PUSH1 0x40 DUP4 DUP6 SUB SLT ISZERO PUSH2 0xC58 JUMPI PUSH2 0xC57 PUSH2 0x7E5 JUMP JUMPDEST JUMPDEST PUSH0 DUP4 ADD CALLDATALOAD PUSH8 0xFFFFFFFFFFFFFFFF DUP2 GT ISZERO PUSH2 0xC75 JUMPI PUSH2 0xC74 PUSH2 0x7E9 JUMP JUMPDEST JUMPDEST PUSH2 0xC81 DUP6 DUP3 DUP7 ADD PUSH2 0xBA9 JUMP JUMPDEST SWAP3 POP POP PUSH1 0x20 PUSH2 0xC92 DUP6 DUP3 DUP7 ADD PUSH2 0x9AE JUMP JUMPDEST SWAP2 POP POP SWAP3 POP SWAP3 SWAP1 POP JUMP JUMPDEST PUSH32 0x4E487B7100000000000000000000000000000000000000000000000000000000 PUSH0 MSTORE PUSH1 0x22 PUSH1 0x4 MSTORE PUSH1 0x24 PUSH0 REVERT JUMPDEST PUSH0 PUSH1 0x2 DUP3 DIV SWAP1 POP PUSH1 0x1 DUP3 AND DUP1 PUSH2 0xCE0 JUMPI PUSH1 0x7F DUP3 AND SWAP2 POP JUMPDEST PUSH1 0x20 DUP3 LT DUP2 SUB PUSH2 0xCF3 JUMPI PUSH2 0xCF2 PUSH2 0xC9C JUMP JUMPDEST JUMPDEST POP SWAP2 SWAP1 POP JUMP JUMPDEST PUSH0 DUP2 SWAP1 POP DUP2 PUSH0 MSTORE PUSH1 0x20 PUSH0 KECCAK256 SWAP1 POP SWAP2 SWAP1 POP JUMP JUMPDEST PUSH0 PUSH1 0x20 PUSH1 0x1F DUP4 ADD DIV SWAP1 POP SWAP2 SWAP1 POP JUMP JUMPDEST PUSH0 DUP3 DUP3 SHL SWAP1 POP SWAP3 SWAP2 POP POP JUMP JUMPDEST PUSH0 PUSH1 0x8 DUP4 MUL PUSH2 0xD55 PUSH32 0xFFFFFFFFFFFFFFFFFFFFFFFFFFFFFFFFFFFFFFFFFFFFFFFFFFFFFFFFFFFFFFFF DUP3 PUSH2 0xD1A JUMP JUMPDEST PUSH2 0xD5F DUP7 DUP4 PUSH2 0xD1A JUMP JUMPDEST SWAP6 POP DUP1 NOT DUP5 AND SWAP4 POP DUP1 DUP7 AND DUP5 OR SWAP3 POP POP POP SWAP4 SWAP3 POP POP POP JUMP JUMPDEST PUSH0 DUP2 SWAP1 POP SWAP2 SWAP1 POP JUMP JUMPDEST PUSH0 PUSH2 0xD9A PUSH2 0xD95 PUSH2 0xD90 DUP5 PUSH2 0x7ED JUMP JUMPDEST PUSH2 0xD77 JUMP JUMPDEST PUSH2 0x7ED JUMP JUMPDEST SWAP1 POP SWAP2 SWAP1 POP JUMP JUMPDEST PUSH0 DUP2 SWAP1 POP SWAP2 SWAP1 POP JUMP JUMPDEST PUSH2 0xDB3 DUP4 PUSH2 0xD80 JUMP JUMPDEST PUSH2 0xDC7 PUSH2 0xDBF DUP3 PUSH2 0xDA1 JUMP JUMPDEST DUP5 DUP5 SLOAD PUSH2 0xD26 JUMP JUMPDEST DUP3 SSTORE POP POP POP POP JUMP JUMPDEST PUSH0 SWAP1 JUMP JUMPDEST PUSH2 0xDDB PUSH2 0xDCF JUMP JUMPDEST PUSH2 0xDE6 DUP2 DUP5 DUP5 PUSH2 0xDAA JUMP JUMPDEST POP POP POP JUMP JUMPDEST JUMPDEST DUP2 DUP2 LT ISZERO PUSH2 0xE09 JUMPI PUSH2 0xDFE PUSH0 DUP3 PUSH2 0xDD3 JUMP JUMPDEST PUSH1 0x1 DUP2 ADD SWAP1 POP PUSH2 0xDEC JUMP JUMPDEST POP POP JUMP JUMPDEST PUSH1 0x1F DUP3 GT ISZERO PUSH2 0xE4E JUMPI PUSH2 0xE1F DUP2 PUSH2 0xCF9 JUMP JUMPDEST PUSH2 0xE28 DUP5 PUSH2 0xD0B JUMP JUMPDEST DUP2 ADD PUSH1 0x20 DUP6 LT ISZERO PUSH2 0xE37 JUMPI DUP2 SWAP1 POP JUMPDEST PUSH2 0xE4B PUSH2 0xE43 DUP6 PUSH2 0xD0B JUMP JUMPDEST DUP4 ADD DUP3 PUSH2 0xDEB JUMP JUMPDEST POP POP JUMPDEST POP POP POP JUMP JUMPDEST PUSH0 DUP3 DUP3 SHR SWAP1 POP SWAP3 SWAP2 POP POP JUMP JUMPDEST PUSH0 PUSH2 0xE6E PUSH0 NOT DUP5 PUSH1 0x8 MUL PUSH2 0xE53 JUMP JUMPDEST NOT DUP1 DUP4 AND SWAP2 POP POP SWAP3 SWAP2 POP POP JUMP JUMPDEST PUSH0 PUSH2 0xE86 DUP4 DUP4 PUSH2 0xE5F JUMP JUMPDEST SWAP2 POP DUP3 PUSH1 0x2 MUL DUP3 OR SWAP1 POP SWAP3 SWAP2 POP POP JUMP JUMPDEST PUSH2 0xE9F DUP3 PUSH2 0x8CB JUMP JUMPDEST PUSH8 0xFFFFFFFFFFFFFFFF DUP2 GT ISZERO PUSH2 0xEB8 JUMPI PUSH2 0xEB7 PUSH2 0xA4F JUMP JUMPDEST JUMPDEST PUSH2 0xEC2 DUP3 SLOAD PUSH2 0xCC9 JUMP JUMPDEST PUSH2 0xECD DUP3 DUP3 DUP6 PUSH2 0xE0D JUMP JUMPDEST PUSH0 PUSH1 0x20 SWAP1 POP PUSH1 0x1F DUP4 GT PUSH1 0x1 DUP2 EQ PUSH2 0xEFE JUMPI PUSH0 DUP5 ISZERO PUSH2 0xEEC JUMPI DUP3 DUP8 ADD MLOAD SWAP1 POP JUMPDEST PUSH2 0xEF6 DUP6 DUP3 PUSH2 0xE7B JUMP JUMPDEST DUP7 SSTORE POP PUSH2 0xF5D JUMP JUMPDEST PUSH1 0x1F NOT DUP5 AND PUSH2 0xF0C DUP7 PUSH2 0xCF9 JUMP JUMPDEST PUSH0 JUMPDEST DUP3 DUP2 LT ISZERO PUSH2 0xF33 JUMPI DUP5 DUP10 ADD MLOAD DUP3 SSTORE PUSH1 0x1 DUP3 ADD SWAP2 POP PUSH1 0x20 DUP6 ADD SWAP5 POP PUSH1 0x20 DUP2 ADD SWAP1 POP PUSH2 0xF0E JUMP JUMPDEST DUP7 DUP4 LT ISZERO PUSH2 0xF50 JUMPI DUP5 DUP10 ADD MLOAD PUSH2 0xF4C PUSH1 0x1F DUP10 AND DUP3 PUSH2 0xE5F JUMP JUMPDEST DUP4 SSTORE POP JUMPDEST PUSH1 0x1 PUSH1 0x2 DUP9 MUL ADD DUP9 SSTORE POP POP POP JUMPDEST POP POP POP POP POP POP JUMP JUMPDEST PUSH32 0x6F6E6C792041646D696E00000000000000000000000000000000000000000000 PUSH0 DUP3 ADD MSTORE POP JUMP JUMPDEST PUSH0 PUSH2 0xF99 PUSH1 0xA DUP4 PUSH2 0x8D5 JUMP JUMPDEST SWAP2 POP PUSH2 0xFA4 DUP3 PUSH2 0xF65 JUMP JUMPDEST PUSH1 0x20 DUP3 ADD SWAP1 POP SWAP2 SWAP1 POP JUMP JUMPDEST PUSH0 PUSH1 0x20 DUP3 ADD SWAP1 POP DUP2 DUP2 SUB PUSH0 DUP4 ADD MSTORE PUSH2 0xFC6 DUP2 PUSH2 0xF8D JUMP JUMPDEST SWAP1 POP SWAP2 SWAP1 POP JUMP INVALID LOG2 PUSH5 0x6970667358 0x22 SLT KECCAK256 GT SSTORE PREVRANDAO LOG1 0xCA SAR 0xDD 0xC5 SWAP5 0xDA 0xD9 STATICCALL 0x4C 0xEC 0xF8 0x26 LOG2 PUSH11 0xAEFC59F5CC034239E98445 SWAP15 MCOPY DUP2 PUSH5 0x736F6C6343 STOP ADDMOD XOR STOP CALLER "
		},
		"gasEstimates": {
			"creation": {
				"codeDepositCost": "819800",
				"executionCost": "infinite",
				"totalCost": "infinite"
			},
			"external": {
				"array(uint256)": "infinite",
				"owner()": "2527",
				"record((string,string,uint8),address)": "infinite",
				"result(address)": "infinite",
				"std1()": "infinite",
				"structure()": "infinite",
				"student_result(uint256)": "4945"
			}
		},
		"methodIdentifiers": {
			"array(uint256)": "38d94193",
			"owner()": "8da5cb5b",
			"record((string,string,uint8),address)": "e6c237a7",
			"result(address)": "77302b0b",
			"std1()": "912a5bde",
			"structure()": "6c92f462",
			"student_result(uint256)": "275bf03b"
		}
	},
	"abi": [
		{
			"inputs": [],
			"stateMutability": "nonpayable",
			"type": "constructor"
		},
		{
			"inputs": [
				{
					"internalType": "uint256",
					"name": "",
					"type": "uint256"
				}
			],
			"name": "array",
			"outputs": [
				{
					"internalType": "uint256",
					"name": "",
					"type": "uint256"
				}
			],
			"stateMutability": "view",
			"type": "function"
		},
		{
			"inputs": [],
			"name": "owner",
			"outputs": [
				{
					"internalType": "address",
					"name": "",
					"type": "address"
				}
			],
			"stateMutability": "view",
			"type": "function"
		},
		{
			"inputs": [
				{
					"components": [
						{
							"internalType": "string",
							"name": "name",
							"type": "string"
						},
						{
							"internalType": "string",
							"name": "subject",
							"type": "string"
						},
						{
							"internalType": "uint8",
							"name": "marks",
							"type": "uint8"
						}
					],
					"internalType": "struct ReferenceTypes.student",
					"name": "_student",
					"type": "tuple"
				},
				{
					"internalType": "address",
					"name": "addStudent",
					"type": "address"
				}
			],
			"name": "record",
			"outputs": [],
			"stateMutability": "nonpayable",
			"type": "function"
		},
		{
			"inputs": [
				{
					"internalType": "address",
					"name": "",
					"type": "address"
				}
			],
			"name": "result",
			"outputs": [
				{
					"internalType": "string",
					"name": "name",
					"type": "string"
				},
				{
					"internalType": "string",
					"name": "subject",
					"type": "string"
				},
				{
					"internalType": "uint8",
					"name": "marks",
					"type": "uint8"
				}
			],
			"stateMutability": "view",
			"type": "function"
		},
		{
			"inputs": [],
			"name": "std1",
			"outputs": [
				{
					"internalType": "string",
					"name": "name",
					"type": "string"
				},
				{
					"internalType": "string",
					"name": "subject",
					"type": "string"
				},
				{
					"internalType": "uint8",
					"name": "marks",
					"type": "uint8"
				}
			],
			"stateMutability": "view",
			"type": "function"
		},
		{
			"inputs": [],
			"name": "structure",
			"outputs": [
				{
					"internalType": "string",
					"name": "",
					"type": "string"
				},
				{
					"internalType": "string",
					"name": "",
					"type": "string"
				},
				{
					"internalType": "uint256",
					"name": "",
					"type": "uint256"
				}
			],
			"stateMutability": "nonpayable",
			"type": "function"
		},
		{
			"inputs": [
				{
					"internalType": "uint256",
					"name": "",
					"type": "uint256"
				}
			],
			"name": "student_result",
			"outputs": [
				{
					"internalType": "address",
					"name": "",
					"type": "address"
				}
			],
			"stateMutability": "view",
			"type": "function"
		}
	]
}